:060000000A128A11F82F1C
:100D3E008316031387018312031387017608F100CC
:100D4E007508F0000A128A11E4260A128A11780830
:100D5E00F1007708F0000A128A116E270A128A1122
:100D6E007808803AFF0080307F02031DC02E0A30C3
:100D7E0077020318C32EC42ECB2E0130F7070318AB
:100D8E00F80A0030F807D32E0130F5070318F60ADB
:100D9E000030F607F701F8010730F4001730F300C2
:100DAE006A30F200F20BD92EF30BD92EF40BD92E9A
:100DBE000000A52E0A128A11002870087104031D66
:100DCE00E92EEA2EF12E83120313871107118710D5
:100DDE0007106D2F70037104031DF62EF72EFE2ED5
:100DEE008312031387110711871007146D2F02301A
:100DFE0070067104031D042F052F0C2F831203138D
:100E0E0087110711871407106D2F033070067104B8
:100E1E00031D122F132F1A2F83120313871107117D
:100E2E00871407146D2F043070067104031D202FD4
:100E3E00212F282F831203138711071587100710F0
:100E4E006D2F053070067104031D2E2F2F2F362F98
:100E5E008312031387110715871007146D2F0630A1
:100E6E0070067104031D3C2F3D2F442F8312031374
:100E7E0087110715871407106D2F07307006710440
:100E8E00031D4A2F4B2F522F831203138711071561
:100E9E00871407146D2F083070067104031D582F28
:100EAE00592F602F83120313871507118710071010
:100EBE006D2F093070067104031D662F672FEA2E01
:100ECE008312031387150711871007140800700883
:100EDE007104031D732F742F7B2F8312031387133B
:100EEE00071387120712F72F70037104031D802F4B
:100EFE00812F882F83120313871307138712071668
:100F0E00F72F023070067104031D8E2F8F2F962F30
:100F1E00831203138713071387160712F72F033055
:100F2E0070067104031D9C2F9D2FA42F8312031393
:100F3E008713071387160716F72F043070067104F0
:100F4E00031DAA2FAB2FB22F83120313871307177C
:100F5E0087120712F72F053070067104031DB82F84
:100F6E00B92FC02F83120313871307178712071683
:100F7E00F72F063070067104031DC62FC72FCE2F14
:100F8E00831203138713071787160712F72F0730DD
:100F9E0070067104031DD42FD52FDC2F831203137B
:100FAE008713071787160716F72F08307006710478
:100FBE00031DE22FE32FEA2F831203138717071364
:100FCE0087120712F72F093070067104031DF02FD8
:100FDE00F12F742F83120313871707138712071627
:100FEE000800F501F601F701F80183010A128A11D2
:020FFE009F2E24
:04400E00F43FFF3F3D
:00000001FF
